:020000020000FC
:0200000012C329
:100068000003020A1E1E12121204150E1F0E15049A
:0A0078000A1F151F151F151F1B009E
:0A01680029596F75206C6F73652133
:10026A000F931F93AF93BF93A0E2B1E010E200E0B7
:10027A000D931A95E9F7A0E0B0E010E000E0BF9115
:10028A00AF911F910F9108950F931F93AF93BF934F
:10029A00A2E6B1E000E010E20D931A95E9F7BF91EA
:1002AA00AF911F910F9108950F931F93AF93BF932F
:1002BA00A2E8B1E000E010E40D931A95E9F7BF91C6
:1002CA00AF911F910F9108954F9348EC00C00BD046
:1002DA004A95E9F74F9108952F9320EA00002A954D
:1002EA00E9F72F9108952F933F9322E338EC3A953B
:1002FA00F1F72A95D9F73F912F910895F4DFF3DFAB
:10030A00F2DF08952F923F924F925F926F929F92DF
:10031A00AF92BF92CF922F93AF93BF93A0E0B1E079
:10032A0011962D903D904D905D906C9000E4009355
:10033A007C0007E800937A0000917A000064009339
:10034A007A0000917A0006FDFCCFA0907800909088
:10035A007900000000000000000001E400937C0026
:10036A0000917A00006400937A0000917A0006FDF9
:10037A00FCCFC0907800B090790048990C94C701DE
:10038A000C94E101360C2227221EA3149204B0F425
:10039A003618220A3618220AA314920488F0560C38
:1003AA00421EC514B40470F45618420A5618420A7A
:1003BA00C514B40448F00AC001E00AC005E008C048
:1003CA0003E006C002E004C004E002C000E000C08E
:1003DA00BF91AF912F91CF90BF90AF909F906F90A8
:1003EA005F904F903F902F90089504E600937C0011
:1003FA0007EC00937A0000917A0006FDFCCF009189
:10040A00790008951DE214B914E01AB92A9811E581
:10041A001CBD10E001D008950EBD0FD02A9A00002D
:10042A0000002A98000000000000289A000000003E
:10043A0000000000289850DF08950DB507FFFDCF92
:10044A0008950F93007F0D7FE7DF0F910295007FDC
:10045A000D7FE2DF41DF08950F93007F0260DCDF4A
:10046A000F910295007F0260D7DF36DF089546DFDD
:10047A0045DF44DF7F9373E000E3CEDF34DF7A9514
:10048A00D9F77F9100E2DDDF08E2DBDF08E0D9DFA0
:10049A0001E0D7DF33DF06E0D4DF0CE0D2DF0895D6
:1004AA00E8E6F0E010E400E4CCDF05910591D4DF42
:1004BA001A95E1F7089501E0C4DF20DF08950F934C
:1004CA001F932F93AF93BF9300E8BBDF10E1A0E225
:1004DA00B1E021E008DF0D91003051F007FF0BC0B9
:1004EA0010C001DF0D91003019F007FF04C009C0E8
:1004FA0000E2B2DF6CC00A95069506950695ACDF58
:10050A0066C0EF93FF934F935F93E02FF0E0F4966A
:10051A00EE0FFF1F0591402F407E509140015C7104
:10052A00569556954517B1F0402F4F71139511976F
:10053A00113009F004C010E122E000EC82DF1A95C4
:10054A001196059189DF4A9599F75F914F91FF912D
:10055A00EF913DC0CF93DF933F924F925F92402F2E
:10056A004F71C0E4D1E059915370550F550F550F93
:10057A00352E5881507E56955695569556955695D0
:10058A00350E58815F71452E13951197113009F078
:10059A0004C010E122E000EC54DF1A95539411963E
:1005AA00531419F0059158DF06C0099155DF1A95C1
:1005BA0011964A94D1F74A9549F75F914F91FF9165
:1005CA00EF915F904F903F90DF91CF9100C0223022
:1005DA0038F400C01A9539F410E122E000EC31DF5A
:1005EA001A9519F404C00C946F020C947602BF9108
:1005FA00AF912F911F910F9133DE0895103164F45A
:10060A0022305CF430E1239F010EA0E2B1E0A00D9C
:10061A00B11D11240C930895000000000024112438
:10062A0022243324442455246624772488249924B4
:10063A00AA24BB24CC24DD24EE24FF24002711277E
:10064A00222733274427552766277727882799277C
:10065A00AA27BB27CC27DD27EE27FF270FEF0DBFE1
:10066A0008E00EBFF894FCDDCDDE01DF47DE46DE92
:10067A0017DFA0E0B1E000E00D9301E00D930FEF6A
:10068A000D9301E00D930FEF0D9304E60C93FCDD3F
:10069A0078940E943404C7C00F9300E0009362016B
:1006AA000F910F9300E0009363010F910F9300E005
:1006BA00009364010F910895CF93DF93CDB7DEB70E
:1006CA000E9487010093640100916401023009F0DD
:1006DA000CC000916301013009F006C00F9300E0DD
:1006EA00009363010F9100C000C0009164010430BF
:1006FA0009F00CC000916301003009F006C00F93A5
:10070A0001E0009363010F9100C000C0DF91CF9117
:10071A000895CF93DF93CDB7DEB701E01091620160
:10072A00209163010E940303DF91CF9108950F93F3
:10073A000FE0009365010F910F9300E000936601AB
:10074A000F910895CF93DF93CDB7DEB70E94FA01D8
:10075A000093660100916601043530F00F9301E0C1
:10076A00009366010F9105C00F9300E000936601A4
:10077A000F91DF91CF910895CF93DF93CDB7DEB775
:10078A0000916501023008F008C00F930EE0009353
:10079A0065010F910E94A70307C00F93009165019D
:1007AA000150009365010F91DF91CF910895CF9386
:1007BA00DF93CDB7DEB701E11091650120916601A3
:1007CA000E940303DF91CF910895CF93DF93CDB7B2
:1007DA00DEB70F93009162010F5F009362010F91E0
:1007EA000091660110916301011709F012C000918E
:1007FA00650110916201011709F00AC00F93009177
:10080A0062010150009362010F910E942A0400C004
:10081A0000C00F93009162010150009362010F9191
:10082A00DF91CF9108950E9461030E948E030E9476
:10083A00C1030E94DC030E94EA0341DE0E947801A0
:10084A000E9478010E947801EECF39DE09E010910A
:10085A006201209162010E94030331DEFFCF0E94F0
:08086A0051030E949C03089554
:00000001FF
